:100000000C9462000C948A000C948A000C948A0070
:100010000C948A000C948A000C948A000C948A0038
:100020000C948A000C948A000C948A000C948A0028
:100030000C948A000C948A000C948A000C948A0018
:100040000C9492030C948A000C9460030C943A0371
:100050000C948A000C948A000C948A000C948A00F8
:100060000C948A000C948A000000000024002700F1
:100070002A0000000000250028002B0000000000DE
:1000800023002600290004040404040404040202DA
:100090000202020203030303030301020408102007
:1000A0004080010204081020010204081020000012
:1000B0000008000201000003040700000000000027
:1000C0000000DC0311241FBECFEFD8E0DEBFCDBFA0
:1000D00011E0A0E0B1E0E4E0F6E102C005900D928D
:1000E000A837B107D9F722E0A8E7B1E001C01D9217
:1000F000A637B207E1F710E0C2E6D0E004C02197CE
:10010000FE010E943B08C136D107C9F70E947A045C
:100110000C94000B0C940000E1E8F1E0A089B18997
:1001200082E08C93A485B5851C92A685B7858FEC5B
:100130008C93108EA489B58986E08C93A289B389AB
:100140008C9180618C93A289B3898C9188608C9307
:10015000A289B3898C9180688C930288F389E02D01
:1001600080818F7D80830895CF92DF92EF92FF92FE
:100170000F931F932FB7F894C0907D01D0907E010C
:10018000E0907F01F09080012FBF6C0D7D1D8E1DD2
:100190009F1D4FB7F89400917D0110917E01209131
:1001A0007F01309180014FBF0C151D052E053F05C5
:1001B00028F0601771078207930758F71F910F9176
:1001C000FF90EF90DF90CF900895AF92BF92CF92C3
:1001D000DF92EF92FF920F931F93CF93DF936C0107
:1001E0007B018B01040F151FEB015E01AE18BF08E8
:1001F000C017D10759F06991D601ED91FC9101909A
:10020000F081E02DC6010995892B79F7C501DF91B1
:10021000CF911F910F91FF90EF90DF90CF90BF9003
:10022000AF900895FC01538D448D252F30E0842F2D
:1002300090E0821B930B541710F0CF96089501970E
:100240000895FC01918D828D981761F0A28DAE0FFB
:10025000BF2FB11D5D968C91928D9F5F9F73928F82
:1002600090E008958FEF9FEF0895FC01918D828DAE
:10027000981731F0828DE80FF11D858D90E008957B
:100280008FEF9FEF0895FC01918D228D892F90E0D3
:10029000805C9F4F821B91098F739927089581E895
:1002A00091E00E94430121E0892B09F420E0822F94
:1002B000089580E090E0892B29F00E944F01811180
:1002C0000C9400000895FC01A48DA80FB92FB11D56
:1002D000A35ABF4F2C91848D90E001968F7399277C
:1002E000848FA689B7892C93A089B1898C9183705A
:1002F00080648C93938D848D981306C00288F38953
:10030000E02D80818F7D80830895EF92FF920F937F
:100310001F93CF93DF93EC0181E0888F9B8D8C8DB1
:1003200098131AC0E889F989808185FF15C09FB7A5
:10033000F894EE89FF896083E889F9898081837068
:10034000806480839FBF81E090E0DF91CF911F9117
:100350000F91FF90EF900895F62E0B8D10E00F5F38
:100360001F4F0F731127E02E8C8D8E110CC00FB60E
:1003700007FCFACFE889F989808185FFF5CFCE01A6
:100380000E946301F1CFEB8DEC0FFD2FF11DE35ABD
:10039000FF4FF0829FB7F8940B8FEA89FB89808129
:1003A0008062CFCFCF93DF93EC01888D8823B9F0A3
:1003B000AA89BB89E889F9898C9185FD03C0808170
:1003C00086FD0DC00FB607FCF7CF8C9185FFF2CFED
:1003D000808185FFEDCFCE010E946301E9CFDF91DF
:1003E000CF910895833081F028F4813099F08230E4
:1003F000A9F008958730A9F08830C9F08430B1F4AD
:10040000809180008F7D03C0809180008F778093E2
:100410008000089584B58F7784BD089584B58F7D5D
:10042000FBCF8091B0008F778093B00008958091CA
:10043000B0008F7DF9CF1F93CF93DF93282F30E04B
:10044000F901E255FF4F8491F901E656FF4FD4912F
:10045000F901EA57FF4FC491CC23A9F0162F81115F
:100460000E94F201EC2FF0E0EE0FFF1FEE58FF4F5D
:10047000A591B4918FB7F894EC91111108C0D09563
:10048000DE23DC938FBFDF91CF911F910895DE2B88
:10049000F8CFAF92BF92CF92DF92EF92FF920F937D
:1004A0001F93CF93DF93EC016A017B0110E000E022
:1004B000AA24A394B12CC501002E02C0880F991F55
:1004C0000A94E2F7092E000CAA0BBB0B8C219D218C
:1004D000AE21BF2161E0892B8A2B8B2B09F460E0D0
:1004E00088810E941B0261E089810E941B0260E0FA
:1004F00089810E941B020F5F1F4F00311105D9F641
:1005000061E08A810E941B0260E08A81DF91CF91C5
:100510001F910F91FF90EF90DF90CF90BF90AF9021
:100520000C941B02CF93DF9390E0FC01E656FF4F43
:1005300024918A579F4FFC0184918823D1F090E049
:10054000880F991FFC01E859FF4FA591B491FC0158
:10055000EE58FF4FC591D49161110EC09FB7F8942A
:100560008C91E22FE0958E238C932881E223E883FF
:100570009FBFDF91CF9108958FB7F894EC91E22B54
:10058000EC938FBFF6CFCF93DF93D82FC0E080914D
:1005900067026D2F8C0F0E949202CF5FC830B9F7AF
:1005A000DF91CF9108953FB7F894809179019091B0
:1005B0007A01A0917B01B0917C0126B5A89B05C072
:1005C0002F3F19F00196A11DB11D3FBFBA2FA92FD2
:1005D000982F8827BC01CD01620F711D811D911DCF
:1005E00042E0660F771F881F991F4A95D1F708953B
:1005F0008F929F92AF92BF92CF92DF92EF92FF9233
:100600000E94D3024B015C0188EEC82E83E0D82EF5
:10061000E12CF12C0E94D302681979098A099B09FF
:10062000683E734081059105A8F321E0C21AD10804
:10063000E108F10888EE880E83E0981EA11CB11C29
:10064000C114D104E104F10429F7FF90EF90DF9089
:10065000CF90BF90AF909F908F900895CF93C82F69
:10066000682F81E891E00E9485018C2FCC0F990BB7
:10067000CF9108951F920F920FB60F9211242F93CE
:100680003F934F935F936F937F938F939F93AF931A
:10069000BF93EF93FF9381E891E00E946301FF9184
:1006A000EF91BF91AF919F918F917F916F915F91EA
:1006B0004F913F912F910F900FBE0F901F90189563
:1006C0001F920F920FB60F9211242F938F939F9327
:1006D000EF93FF93E0919101F09192018081E0917D
:1006E0009701F091980182FD1BC0908180919A0141
:1006F0008F5F8F7320919B01821741F0E0919A01E7
:10070000F0E0EF57FE4F958F80939A01FF91EF91A4
:100710009F918F912F910F900FBE0F901F90189562
:100720008081F4CF1F920F920FB60F9211242F9356
:100730003F938F939F93AF93BF9380917D0190914F
:100740007E01A0917F01B09180013091780123E07A
:10075000230F2D3758F50196A11DB11D2093780167
:1007600080937D0190937E01A0937F01B0938001DF
:100770008091790190917A01A0917B01B0917C01E7
:100780000196A11DB11D8093790190937A01A093E8
:100790007B01B0937C01BF91AF919F918F913F916D
:1007A0002F910F900FBE0F901F90189526E8230FE2
:1007B0000296A11DB11DD2CF0F931F93CF93DF934C
:1007C000E1E8F1E01382128288EE93E0A0E0B0E06D
:1007D00084839583A683B7838AE091E091838083A5
:1007E00085EC90E09587848784EC90E097878687F6
:1007F00080EC90E0918B808B81EC90E0938B828BEE
:1008000082EC90E0958B848B86EC90E0978B868BC6
:10081000118E128E138E148EEEE1F2E01682178284
:1008200010861186128613861486158616861786FC
:10083000108A118A128A138A148A158A70E060E07D
:100840008EE293E00E947106C8E6D2E08EE08883D3
:100850008FE0898380E18A8381E18B8361E08EE090
:100860000E94920261E089810E94920261E08A8185
:100870000E94920261E08B810E94920260E0888176
:100880000E941B0260E089810E941B0260E08A8155
:100890000E941B0261E08B810E941B0204E612E0B1
:1008A000D8011196DC93CE9382E112968C93129725
:1008B00082E013968C9361E082E10E94920261E0F3
:1008C000F80182810E941B0280E00E94C30240E086
:1008D00050E0BA01D8018D919C910E944902D80143
:1008E000ED91FC9160E08381DF91CF911F910F9199
:1008F0000C941B02CF93DF93CDB7DEB7C95CD1094F
:100900000FB6F894DEBF0FBECDBF789484B5826079
:1009100084BD84B5816084BD85B5826085BD85B5A3
:10092000816085BD80916E00816080936E00109221
:10093000810080918100826080938100809181009C
:10094000816080938100809180008160809380002D
:100950008091B10084608093B1008091B00081608B
:100960008093B00080917A00846080937A008091B7
:100970007A00826080937A0080917A00816080930F
:100980007A0080917A00806880937A001092C1008A
:100990001092600210926102109262021092630241
:1009A0001092200210922102109222021092230231
:1009B00068EB7BE080E090E00E94B4000E94F802C7
:1009C0000E948C002FB7F89480917D0190917E0158
:1009D000A0917F01B09180012FBF8093200290935E
:1009E0002102A0932202B093230240E150E068E18B
:1009F00071E081E891E00E94E5006AE070E080E04B
:100A000090E00E94B40081E0809334022FB7F89404
:100A100080917D0190917E01A0917F01B091800134
:100A20002FBF8093200290932102A0932202B093C3
:100A3000230246E050E069E271E081E891E00E9423
:100A4000E5000E948C000E94F80280E391E00E9481
:100A5000570860E080916B020E941B0242E050E068
:100A600065E371E081E891E00E94E500412C5EEFD2
:100A7000552E612C712C10E000E068E3C62E61E079
:100A8000D62E7BE3A72E7CE9B72E5F924F921F9361
:100A90000F93DF92CF920E94410860E0809166023E
:100AA0000E941B02B301A201809164029091650231
:100AB0000E94490281E00E94C3020F900F900F90A4
:100AC0000F900F900F90F12CE12CB8010E2C02C06A
:100AD000759567950A94E2F76170809167028E0DB3
:100AE0000E941B022FEFE21AF20A88E0E816F104D6
:100AF00061F7B301A2015058610971098091640244
:100B0000909165020E94490280E00E94C30240E089
:100B100050E0BA0180916402909165020E944902FE
:100B2000C5010197F1F761E0809166020E941B0206
:100B30000F5F1F4F9FEF491A590A690A790A011579
:100B4000E1E01E0709F0A1CF412C3EEF532E612CAE
:100B5000712C10E000E0D12CC12C4AE4A42E41E01D
:100B6000B42EC753DF4F4882C95CD040852C80E04B
:100B70000E94C30261E0809166020E941B02B301E1
:100B8000A20180916402909165020E944902912C19
:100B9000F12CE12C209167022E0D30E0F901E25595
:100BA000FF4F8491F901E656FF4F2490F901EA576F
:100BB000FF4F3490332009F486C081110E94F20166
:100BC000E32DF0E0EE0FFF1FE458FF4FA591B49125
:100BD000EC912E2231E009F430E0832F0E2C01C07D
:100BE000880F0A94EAF7982AFFEFEF1AFF0A28E025
:100BF000E216F10409F0CECF40E050E0BA01809156
:100C00006402909165020E944902E92CF12C1F9226
:100C10009F928F92C753DF4F8881C95CD0408F93DA
:100C2000BF92AF920E9441080F900F900F900F90CB
:100C30000F900F90EC14FD0469F0F801EE0FFF1F08
:100C400081E090E08C0F9D1FE80FF91F51824082D8
:100C50000F5F1F4F9FEFC91AD90AEFEF4E1A5E0AB6
:100C60006E0A7E0AC114F1E0DF0609F07ACF1F9305
:100C70000F938CE591E09F938F930E944108CE01E2
:100C800001967C010F900F900F900F90D12CC12CEA
:100C900087E6A82E81E0B82EC016D106B1F0F70184
:100CA00080819181F2E0EF0EF11C9F938F93BF92B0
:100CB000AF920E9441082FEFC21AD20A0F900F90F4
:100CC0000F900F90E9CF80E089CF00E010E0011590
:100CD0001105E9F30E944F018823C9F30E94000027
:100CE000F6CF0F931F93CF93DF93009759F46115BD
:100CF000710541F4F0E0E0E0CF01DF91CF911F9169
:100D00000F9108958B01EC016EE070E081E090E0BE
:100D10000E94BC06FC01892B69F380E883830115DE
:100D2000110571F01387028781E8838380916C023B
:100D300090916D02892B21F4F0936D02E0936C0287
:100D40002097D1F2D187C08783818260838380918D
:100D50006E0290916F02892B79F6F0936F02E09307
:100D60006E028091700290917102892B29F6F093A6
:100D70007102E0937002C0CF0F931F93CF93DF9364
:100D8000869F8001879F100D969F100D1124C8012A
:100D90000E94D806EC01009729F0A80170E060E0FD
:100DA0000E94FD07CE01DF91CF911F910F91089511
:100DB0000F931F93CF93DF938230910510F482E05D
:100DC00090E0E0917402F091750230E020E0B0E034
:100DD000A0E0309799F42115310509F44AC0281B89
:100DE000390B24303105D8F58A819B816115710555
:100DF00089F1FB0193838283FE0111C040815181FF
:100E00000281138148175907E0F04817590799F4F0
:100E1000109761F012960C93129713961C933296CA
:100E2000CF01DF91CF911F910F910895009374022C
:100E300010937502F4CF2115310551F04217530775
:100E400038F0A901DB019A01BD01DF01F801C1CF32
:100E5000EF01F9CF9093750280937402CDCFFE011C
:100E6000E20FF31F81939193225031093983288334
:100E7000D7CF2091720230917302232B41F420913D
:100E8000020130910301309373022093720220918A
:100E90000001309101012115310541F42DB73EB714
:100EA0004091040150910501241B350BE091720221
:100EB000F0917302E217F307A0F42E1B3F0B2817E3
:100EC000390778F0AC014E5F5F4F2417350748F0C3
:100ED0004E0F5F1F50937302409372028193919360
:100EE0009FCFF0E0E0E09CCFCF93DF930097E9F055
:100EF000FC01329713821282A0917402B0917502A4
:100F0000ED0130E020E01097A1F420813181820FC3
:100F1000931F20917202309173022817390709F04C
:100F200061C0F0937302E0937202DF91CF91089554
:100F3000EA01CE17DF07E8F54A815B819E01411582
:100F40005105B1F7E901FB83EA8349915991C40F37
:100F5000D51FEC17FD0761F4808191810296840F03
:100F6000951FE90199838883828193819B838A837A
:100F7000F0E0E0E012968D919C9113970097B9F5FF
:100F80002D913C911197CD010296820F931F2091D4
:100F90007202309173022817390739F6309751F5EC
:100FA0001092750210927402B0937302A0937202B1
:100FB000BCCFD383C28340815181840F951FC81752
:100FC000D90761F44E5F5F4F88819981480F591F9F
:100FD000518340838A819B819383828321153105CC
:100FE00009F0B0CFF0937502E09374029ECFFD013B
:100FF000DC01C0CF13821282D7CFDC0101C06D9318
:1010000041505040E0F708952F923F924F925F92E7
:101010006F927F928F929F92AF92BF92CF92DF9208
:10102000EF92FF920F931F93CF93DF93CDB7DEB76D
:10103000CA1BDB0B0FB6F894DEBF0FBECDBF099401
:101040002A88398848885F846E847D848C849B8458
:10105000AA84B984C884DF80EE80FD800C811B8166
:10106000AA81B981CE0FD11D0FB6F894DEBF0FBE95
:10107000CDBFED010895EE0FFF1F0590F491E02D17
:101080000994B0E0A0E0E7E4F8E00C941408AE01A5
:101090004B5F5F4FFA0161917191AF0180916E02D8
:1010A00090916F020E948208E2E00C9430080F9346
:1010B0001F93CF93DF93E0916E02F0916F02238133
:1010C000EC0110E000E021FD08C00FEF1FEF14C09D
:1010D0000995892B11F00FEF1FEF899160916E0236
:1010E00070916F02DB011896ED91FC918111F0CFA8
:1010F0008AE00995892B49F7C801DF91CF911F91AB
:101100000F910895ABE0B0E0E8E8F8E00C94040833
:101110007C013B018A01FC0117821682838181FFD9
:10112000C8C1CE0101965C01F7019381F30193FDE3
:10113000859193FF81913F01882309F453C1853242
:1011400039F493FD859193FF81913F01853229F414
:10115000B70190E00E94720AE7CF912C212C312C2C
:10116000FFE1F31538F08B3211F190F4803209F180
:10117000833229F137FC3CC020ED280F2A3050F58E
:1011800036FE20C08AE0989E200D1124922E06C0C3
:101190008D3291F0803371F7689430F8F30193FD4C
:1011A000859193FF81913F018111DACF21C068942D
:1011B00031F8689432F8F2CF689433F8EFCF68943E
:1011C00034F8ECCFEAE02E9E200D1124222E6894F4
:1011D00035F8E4CF8E3229F436FC04C1689436F831
:1011E000DDCF8C3619F4689437F8D8CF8836B1F251
:1011F000982F9F7D95549330E0F08336A1F183378B
:10120000C1F1833509F063C02801F2E04F0E511C93
:10121000F801C080D180692D70E036FC02C06FEF0C
:101220007FEFC6010E945C0A4C01689437F8820186
:101230000AC00C5F1F4FFFE3F98388248394912C2D
:101240006501E89437F833FE2DC0522C81149104C7
:1012500071F5552009F468CFB70180E290E00E9453
:10126000720A5A94F6CFF801808189830E5F1F4F6E
:10127000E4CF2801F2E04F0E511CF801C080D1806C
:10128000692D70E036FC02C06FEF7FEFC6010E944F
:10129000670A4C018201D5CFB70180E290E00E943D
:1012A000720A2A942814190409F0B0F7CECFF60177
:1012B00037FC859137FE81916F01B70190E00E9464
:1012C000720A51105A94F1E08F1A9108BFCF8436F8
:1012D00019F0893609F077C0F80137FE6BC06081DC
:1012E0007181828193810C5F1F4FF32DFF763F2E1A
:1012F00097FF09C090958095709561957F4F8F4FAE
:101300009F4F689437F82AE030E0A5010E94A20AB6
:10131000C82ECA188C2C432C36FE0CC0E89440F81A
:10132000C91440F434FE05C032FC03C0F32DFE7E28
:101330004F2E892C44FE95C0FE01EC0DF11D8081DD
:10134000803309F087C0242D297E422E842D887099
:10135000582E43FC95C040FE8FC09C2C821418F47C
:101360002C0C922C981844FE91C0B70180E390E0B9
:101370000E94720A42FE09C088E790E041FE02C066
:1013800088E590E0B7010E94720AC91408F48AC087
:10139000CA94D12C9FEFC91AD90ACA0CDB1CF601DA
:1013A00082916F01B70190E00E94720AAC14BD04F3
:1013B000B1F74FCF60817181072E000C880B990B1C
:1013C0000E5F1F4F92CFD32CE894D4F82AE030E080
:1013D000853739F1232D297FD22E8F3601F148F43C
:1013E0008835A9F0F701868197812B96E2E10C946C
:1013F0002008803749F08837A9F7D4FE02C06894E6
:10140000D2F820E130E00DC06894D4F8F6CF34FE75
:1014100003C0822F8660D82E20E132E002C028E08F
:1014200030E0F801D7FE0FC0608171818281938125
:101430000C5F1F4FA5010E94A20AC82ECA183D2C9E
:10144000E89437F867CF6081718190E080E00E5FAB
:101450001F4FF0CF42FC02C0839478CF83948394D3
:1014600075CF842D867809F471CFF6CFB70180E26D
:1014700090E00E94720A83948214C0F3512C73CFBF
:10148000522C5818821408F46ECFF8CF842D867829
:1014900009F47BCF8BE241FE80E247FC8DE2B7018D
:1014A00090E071CFB70180E390E00E94720A9A94B5
:1014B0006CCF8FEF9FEF99CFFC010590615070408A
:1014C0000110D8F7809590958E0F9F1F0895FC010D
:1014D0006150704001900110D8F7809590958E0F63
:1014E0009F1F08950F931F93CF93DF93182F092FFA
:1014F000EB018B8181FD09C01FEF0FEF812F902F32
:10150000DF91CF911F910F91089582FF14C02E811A
:101510003F818C819D81281739073CF4E881F9814E
:10152000CF0101969983888310838E819F810196D4
:101530009F838E83E3CFE885F985812F0995892BD9
:10154000A1F3DACFFA01AA27283051F1203181F135
:10155000E8946F936E7F6E5F7F4F8F4F9F4FAF4FBB
:10156000B1E03ED0B4E03CD0670F781F891F9A1FCE
:10157000A11D680F791F8A1F911DA11D6A0F711D82
:10158000811D911DA11D20D009F468943F912AE08E
:10159000269F11243019305D3193DEF6CF01089576
:1015A000462F4770405D4193B3E00FD0C9F7F6CFA7
:1015B000462F4F70405D4A3318F0495D31FD40526F
:1015C000419302D0A9F7EACFB4E0A6959795879505
:1015D00077956795BA95C9F70097610571050895E4
:1015E0009B01AC010A2E0694579547953795279590
:1015F000BA95C9F7620F731F841F951FA01D089528
:04160000F894FFCF8C
:10160400000076028000000000008501E500120160
:10161400D201430121013501564D4450565F317CBE
:10162400315F564D4450560A00564D4450525F00A7
:1016340054657374000D0A00572025303278202D2C
:101644003E205B253034785D0A0052205B2530341F
:10165400785D202D3E20253032780A0025642065EF
:1016640072726F72730A004572726F72206F6E200D
:081674003078253034780A00BB
:00000001FF
