:100000000C9462000C948A000C948A000C948A0070
:100010000C948A000C948A000C948A000C948A0038
:100020000C948A000C948A000C948A000C948A0028
:100030000C948A000C948A000C948A000C948A0018
:100040000C94F3070C948A000C94C1070C949B0742
:100050000C948A000C948A000C948A000C948A00F8
:100060000C948A000C948A000000000024002700F1
:100070002A0000000000250028002B0000000000DE
:1000800023002600290004040404040404040202DA
:100090000202020203030303030301020408102007
:1000A0004080010204081020010204081020000012
:1000B0000008000201000003040700000000000027
:1000C00000003D0811241FBECFEFD8E0DEBFCDBF3A
:1000D00012E0A0E0B1E0E6E3FEE102C005900D927F
:1000E000AE38B107D9F723E0AEE8B2E001C01D9207
:1000F000AA3AB207E1F710E0C2E6D0E004C02197C7
:10010000FE010E94320CC136D107C9F70E94460990
:100110000C94190F0C940000E7E9F2E0A089B18972
:1001200082E08C93A485B5851C92A685B7858FEC5B
:100130008C93108EA489B58986E08C93A289B389AB
:100140008C9180618C93A289B3898C9188608C9307
:10015000A289B3898C9180688C930288F389E02D01
:1001600080818F7D80830895AF92BF92CF92DF927E
:10017000EF92FF920F931F93CF93DF936C017B015C
:100180008B01040F151FEB015E01AE18BF08C017ED
:10019000D10759F06991D601ED91FC910190F08160
:1001A000E02DC6010995892B79F7C501DF91CF9123
:1001B0001F910F91FF90EF90DF90CF90BF90AF9085
:1001C0000895FC01538D448D252F30E0842F90E05D
:1001D000821B930B541710F0CF9608950197089542
:1001E000FC01918D828D981761F0A28DAE0FBF2F0B
:1001F000B11D5D968C91928D9F5F9F73928F90E061
:1002000008958FEF9FEF0895FC01918D828D9817CF
:1002100031F0828DE80FF11D858D90E008958FEF0C
:100220009FEF0895FC01918D228D892F90E0805CD5
:100230009F4F821B91098F739927089587E992E058
:100240000E94120121E0892B09F420E0822F0895F9
:10025000FC01A48DA80FB92FB11DA35ABF4F2C913B
:10026000848D90E001968F739927848FA689B78932
:100270002C93A089B1898C91837080648C93938D29
:10028000848D981306C00288F389E02D80818F7DCC
:1002900080830895EF92FF920F931F93CF93DF9384
:1002A000EC0181E0888F9B8D8C8D98131AC0E889B2
:1002B000F989808185FF15C09FB7F894EE89FF8981
:1002C0006083E889F98980818370806480839FBF1F
:1002D00081E090E0DF91CF911F910F91FF90EF901F
:1002E0000895F62E0B8D10E00F5F1F4F0F7311272F
:1002F000E02E8C8D8E110CC00FB607FCFACFE8896A
:10030000F989808185FFF5CFCE010E942801F1CFC8
:10031000EB8DEC0FFD2FF11DE35AFF4FF0829FB7DD
:10032000F8940B8FEA89FB8980818062CFCFCF93CD
:10033000C82F66E087E992E00E944A016C2F87E9A6
:1003400092E0CF910C944A01CF93DF93EC01888D1A
:100350008823B9F0AA89BB89E889F9898C9185FD40
:1003600003C0808186FD0DC00FB607FCF7CF8C91CE
:1003700085FFF2CF808185FFEDCFCE010E9428015D
:10038000E9CFDF91CF910895833081F028F4813057
:1003900099F08230A9F008958730A9F08830C9F02B
:1003A0008430B1F4809180008F7D03C08091800003
:1003B0008F7780938000089584B58F7784BD0895EA
:1003C00084B58F7DFBCF8091B0008F778093B00094
:1003D00008958091B0008F7DF9CFCF93DF93282FC0
:1003E00030E0F901E255FF4F8491F901E656FF4FE5
:1003F000D491F901EA57FF4FC491CC23A1F08111A8
:100400000E94C401EC2FF0E0EE0FFF1FE458FF4FF5
:10041000A591B491EC91ED2381E090E009F480E0A6
:10042000DF91CF91089580E090E0FACFEF92FF92B4
:100430001F93CF93DF9386E0E82E81E0F82E10E043
:10044000D0E0C0E0F7018081F2E0EF0EF11C0E94E5
:10045000ED010C2E01C0880F0A94EAF7182B2196A3
:10046000C830D10579F7812FDF91CF911F91FF908F
:10047000EF9008951F93CF93DF93282F30E0F90179
:10048000E255FF4F8491F901E656FF4FD491F901EF
:10049000EA57FF4FC491CC23A9F0162F81110E9477
:1004A000C401EC2FF0E0EE0FFF1FEE58FF4FA591B7
:1004B000B4918FB7F894EC91111108C0D095DE2358
:1004C000DC938FBFDF91CF911F910895DE2BF8CF82
:1004D000AF92BF92CF92DF92EF92FF920F931F9352
:1004E000CF93DF93EC016A017B0110E000E0AA24C6
:1004F000A394B12CC501002E02C0880F991F0A9445
:10050000E2F7092E000CAA0BBB0B8C219D21AE211A
:10051000BF2161E0892B8A2B8B2B09F460E0888155
:100520000E943A0261E089810E943A0260E089817A
:100530000E943A020F5F1F4F00311105D9F661E0AA
:100540008A810E943A0260E08A81DF91CF911F91F7
:100550000F91FF90EF90DF90CF90BF90AF900C94F1
:100560003A02EF92FF920F931F93CF93DF9396E09F
:10057000E92E91E0F92ED0E0C0E0082F10E0F7015D
:100580008081F2E0EF0EF11CB8010C2E02C07595CF
:1005900067950A94E2F761700E943A022196C8308A
:1005A000D10569F7DF91CF911F910F91FF90EF90E7
:1005B0000895CF93DF9390E0FC01E656FF4F24911E
:1005C0008A579F4FFC0184918823D1F090E0880FD7
:1005D000991FFC01E859FF4FA591B491FC01EE5819
:1005E000FF4FC591D49161110EC09FB7F8948C91C3
:1005F000E22FE0958E238C932881E223E8839FBF2E
:10060000DF91CF9108958FB7F894EC91E22BEC93A2
:100610008FBFF6CF1F93CF93DF93182FC6E0D1E0A3
:1006200088812296612F0E94D90281E0C631D807C5
:10063000B9F7DF91CF911F9108953FB7F89480915A
:10064000930290919402A0919502B091960226B5E2
:10065000A89B05C02F3F19F00196A11DB11D3FBFFA
:10066000BA2FA92F982F8827BC01CD01620F711DC9
:10067000811D911D42E0660F771F881F991F4A95C3
:10068000D1F708958F929F92AF92BF92CF92DF924F
:10069000EF92FF924B015C010E941D036B017C01F4
:1006A0000E941D036C197D098E099F09683E7340E5
:1006B00081059105A8F321E0821A9108A108B108EB
:1006C00088EEC80E83E0D81EE11CF11C8114910451
:1006D000A104B10429F7FF90EF90DF90CF90BF9075
:1006E000AF909F908F9008952FB7F89460918F02EC
:1006F0007091900280919102909192022FBF089583
:10070000CF93C82F682F87E992E00E944A018C2F6F
:10071000CC0F990BCF910895CF92DF92EF92FF9279
:100720000F931F93CF93DF936C018B017A01D0E07D
:10073000C0E087E992E00E94120180179107D4F48B
:100740006AE070E080E090E00E9442032196EC169F
:10075000FD067CF78FEFE816F80659F388E291E082
:10076000DF91CF911F910F91FF90EF90DF90CF908D
:100770000C94670CE6010C0D1D1D87E992E00E94A8
:10078000F00089930C171D07C1F7DF91CF911F91DE
:100790000F91FF90EF90DF90CF900895CF93DF936C
:1007A00000D0CDB7DEB7EF81F88580818823D9F0FE
:1007B00080E491E09F938F930E944A0CBE01655F95
:1007C0007F4F89859A850E94920C8AE090E00E9472
:1007D000600C4FEF5FEF61E070E0CE0101960E9488
:1007E0008C030F900F900F900F90DF91CF91089591
:1007F0003F924F925F926F927F928F929F92AF92B1
:10080000BF92CF92DF92EF92FF920F931F93CF93FD
:10081000DF93CDB7DEB7C550D1400FB6F894DEBF39
:100820000FBECDBF87E992E00E941201892B09F427
:1008300063C348E853E161E070E0CE018B5F9E4FF7
:100840000E948C03CB5FDE4FE881C550D140E7307A
:1008500008F049C30E2E000CFF0BEF5CFB4F0C940D
:10086000320C75043804D8056905A705FB055B043F
:1008700048E853E161E070E0CE0101960E948C03EC
:10088000E0918503F091860381E09981911101C087
:1008900080E0808389811F928F9387E491E09F930A
:1008A0008F930E944A0C81E00E9497010F900F9055
:1008B0000F900F90B7CF48E853E161E070E0CE01B0
:1008C00001960E948C03E0918503F0918603F080ED
:1008D00081E080838981882361F0813009F4F4C04C
:1008E000E0918503F0918603F08281E00E949701F8
:1008F00099CFE0918C03F0918D0360E083810E9499
:100900003A0260E080918E030E943A0240E050E893
:1009100060E070E080918C0390918D030E946802EA
:1009200081E00E940A0385E50E94B1028FE491E014
:100930009F938F9380917B038F9380917A038F9302
:100940000E94CE0340E050E0BA0180918C03909168
:100950008D030E94680280E00E940A0340E050E09C
:10096000BA0180918C0390918D030E9468020BE381
:100970001CE9C8010197F1F761E080918E030E94A4
:100980003A0260E080918E030E943A0241E050E812
:1009900060E070E080918C0390918D030E9468026A
:1009A00081E00E940A038AEA0E94B10280E691E097
:1009B0009F938F9380917B038F9380917A038F9382
:1009C0000E94CE0341E050E060E070E080918C0333
:1009D00090918D030E94680280E00E940A0340E02B
:1009E00050E0BA0180918C0390918D030E946802BF
:1009F000C8010197F1F761E080918E030E943A02ED
:100A000080E00E940A0361E080918E030E943A0216
:100A100040E050E860E070E080918C0390918D039D
:100A20000E9468020E9416021F928F9381E791E054
:100A30009F938F9380917B038F9380917A038F9301
:100A40000E94CE0340E050E0BA0180918C03909167
:100A50008D030E94680280E00E940A0361E0809199
:100A60008E030E943A0241E050E860E070E080911D
:100A70008C0390918D030E9468020E9416021F92BF
:100A80008F9388E891E09F938F9380917B038F935E
:100A900080917A038F930E94CE0340E050E0BA0128
:100AA00080918C0390918D030E946802E0918C03E9
:100AB000F0918D0361E083810E943A020FB6F894B1
:100AC000DEBF0FBECDBF0CCF8FE991E00E94670C57
:100AD00007CF61E087E00E94D90260E087E00E94D2
:100AE0003A0261E070E080E090E00E9442031092E0
:100AF0009F0360E088E00E94D90260E088E00E94E5
:100B00003A0261E088E00E94D9020AE010E061E068
:100B100088E00E943A0264E670E080E090E00E9483
:100B2000420360E088E00E943A0264E670E080E000
:100B300090E00E9442030150110949F761E087E00B
:100B40000E943A0260E087E00E94D902CECE48E8D7
:100B500053E162E070E0CE0101960E948C030981AE
:100B60001A810115110529F410929F0360E088E0B5
:100B7000EBCF81E080939F0360E088E00E943A021F
:100B800061E088E00E94D902812F880F880B0093D2
:100B90009703109398038093990380939A0380930B
:100BA0009B0380939C0380939D0380939E039DCE23
:100BB00010929F0360E088E00E94D90261E088E023
:100BC0000E94D90261E088E00E943A0264E670E087
:100BD00080E090E00E94420360E088E00E943A02D8
:100BE00064E670E080E090E00E94420360E088E00C
:100BF0000E94D90217CE48E853E162E070E0CE01CE
:100C00008F5F9E4F0E948C0348E853E162E070E0E2
:100C1000CE018D5F9E4F0E948C03CD5FDE4FC8805A
:100C2000D980C350D14010E000E0FE0131963F0171
:100C30003FEAA32E31E0B32E0C151D0538F57601E1
:100C4000E01AF10AF1E2EF16F10418F020E2E22EC8
:100C5000F12CFF92EF92DF92CF921F930F93BF92EE
:100C6000AF920E944A0C82E00E94970148E853E14B
:100C7000B701C301800F911F0E948C030E0D1F1D31
:100C80000FB6F894DEBF0FBECDBFD6CFCD5FDE4F1F
:100C900048805980C350D140CF5FDE4F0881198111
:100CA000C150D140E0918C03F0918D0360E08381CD
:100CB0000E943A02780163018DEFA82E81E0B82EE0
:100CC0009BE3892E9CE9992EC60186199709841504
:100CD000950508F088C0F60131906F0160E08091C1
:100CE0008E030E943A0281EC91E09F938F93809152
:100CF0007B038F9380917A038F930E94CE03A70189
:100D000070E060E080918C0390918D030E946802F6
:100D1000FF92EF928FEC91E09F938F9380917B03F2
:100D20008F9380917A038F930E94CE0381E00E947B
:100D30000A03832D0E94B1021F923F9283EE91E03D
:100D40009F938F9380917B038F9380917A038F93EE
:100D50000E94CE03A701505870E060E080918C03A0
:100D600090918D030E94680284EF91E09F938F938E
:100D700080917B038F9380917A038F930E94CE039F
:100D800080E00E940A0340E050E0BA0180918C03A9
:100D900090918D030E946802BF92AF9280917B0375
:100DA0008F9380917A038F930E94CE03C4010197A1
:100DB000F1F761E080918E030E943A0288E092E0B0
:100DC0009F938F9380917B038F9380917A038F936E
:100DD0000E94CE03FFEFEF1AFF0A0FB6F894DEBFB2
:100DE0000FBECDBF71CF6301F12CE12C48018618F5
:100DF00097080F5F1F4FC60186199709841595053F
:100E000008F040C05401AC0CBD1C80E00E940A03F5
:100E100061E080918E030E943A02A50170E060E0DB
:100E200080918C0390918D030E9468020E941602AB
:100E3000B82E40E050E0BA0180918C0390918D0370
:100E40000E946802F60181916F018B15A1F2FFEFFC
:100E5000EF1AFF0A1F92BF921F928F931F930F9357
:100E600087E192E09F938F930E944A0C64E670E0C2
:100E700080E090E00E9442030FB6F894DEBF0FBE00
:100E8000CDBFB9CFE0918C03F0918D0361E08381F8
:100E90000E943A02FF92EF92CC5FDE4F8881C450ED
:100EA000D1408F93CD5FDE4F8881C350D1408F9367
:100EB000CE5FDE4F8881C250D1408F93CF5FDE4F2F
:100EC0008881C150D1408F9383E392E09F938F93A9
:100ED0000E944A0C81E00E9497010FB6F894DEBF91
:100EE0000FBECDBF9FCC1F92EF9386E592E09F93FC
:100EF0008F930E944A0CDACCCB5FDE4F0FB6F8948A
:100F0000DEBF0FBECDBFDF91CF911F910F91FF903C
:100F1000EF90DF90CF90BF90AF909F908F907F9099
:100F20006F905F904F903F9008950E941E01811135
:100F30000C94F80308951F920F920FB60F9211248C
:100F40002F933F934F935F936F937F938F939F93D1
:100F5000AF93BF93EF93FF9387E992E00E9428013C
:100F6000FF91EF91BF91AF919F918F917F916F9181
:100F70005F914F913F912F910F900FBE0F901F9057
:100F800018951F920F920FB60F9211242F938F93E3
:100F90009F93EF93FF93E091A702F091A8028081C5
:100FA000E091AD02F091AE0282FD1BC09081809174
:100FB000B0028F5F8F732091B102821741F0E091F0
:100FC000B002F0E0E956FD4F958F8093B002FF919B
:100FD000EF919F918F912F910F900FBE0F901F90C7
:100FE00018958081F4CF1F920F920FB60F921124A3
:100FF0002F933F938F939F93AF93BF9380918F02D3
:1010000090919002A0919102B091920230918E0243
:1010100023E0230F2D3758F50196A11DB11D209314
:101020008E0280938F0290939002A0939102B093CE
:1010300092028091930290919402A0919502B091B6
:1010400096020196A11DB11D809393029093940284
:10105000A0939502B0939602BF91AF919F918F910B
:101060003F912F910F900FBE0F901F90189526E87B
:10107000230F0296A11DB11DD2CFCF93DF93109203
:101080009A021092990288EE93E0A0E0B0E080937B
:101090009B0290939C02A0939D02B0939E028AE1D2
:1010A00091E0909398028093970285EC90E0909362
:1010B000A4028093A30284EC90E09093A602809314
:1010C000A50280EC90E09093A8028093A70281ECA7
:1010D00090E09093AA028093A90282EC90E0909312
:1010E000AC028093AB0286EC90E09093AE028093CA
:1010F000AD021092B0021092B1021092B2021092A0
:10110000B30210923A0310923B0310923C031092E8
:101110003D0310923E0310923F0310924003109241
:101120004103109242031092430310924403109221
:101130004503109246031092470310924803109201
:10114000490370E060E080E893E00E94680A8091C3
:101150007D03811105C010927C0381E080937D03A3
:101160008CE793E090937B0380937A0382E08093F3
:10117000880385E08093890384E080938A0383E079
:1011800080938B0361E082E00E94D90261E080914C
:1011900089030E94D90261E080918A030E94D902EA
:1011A00061E080918B030E94D90260E08091880306
:1011B0000E943A0260E0809189030E943A0260E056
:1011C00080918A030E943A0261E080918B030E9421
:1011D0003A0288E893E090938D0380938C0386E035
:1011E00080938E0361E00E94D90261E080918E03BA
:1011F0000E943A0280E00E940A0340E050E0BA01F7
:1012000080918C0390918D030E946802E0918C0381
:10121000F0918D0361E083810E943A02109297035E
:10122000109298031092990310929A0310929B03C4
:1012300010929C0310929D0310929E030E947403CF
:10124000DC01CB0160938F0390939003A0939103F3
:10125000B09392031092930310929403109295030B
:101260001092960310929F0380917D03811105C017
:1012700010927C0381E080937D038CE793E0909350
:10128000860380938503DF91CF910895789484B588
:10129000826084BD84B5816084BD85B5826085BD72
:1012A00085B5816085BD80916E00816080936E0000
:1012B00010928100809181008260809381008091F2
:1012C00081008160809381008091800081608093A3
:1012D00080008091B10084608093B1008091B00063
:1012E00081608093B00080917A00846080937A005E
:1012F00080917A00826080937A0080917A00816088
:1013000080937A0080917A00806880937A001092AE
:10131000C100109276031092770310927803109216
:10132000790310923603109237031092380310920B
:1013300039030E9474036B017C012B013C0188EB93
:10134000480E8BE0581E611C711C0E9474036C15C2
:101350007D058E059F0528F0461657066806790616
:10136000A0F768EE73E080E090E00E9442030E94E4
:101370008C000E947403609336037093370380934C
:1013800038039093390340E150E06AE672E087E960
:1013900092E00E94B4000E9474036B017C012B0157
:1013A0003C018AE0480E511C611C711C0E947403B0
:1013B0006C157D058E059F0528F0461657066806B4
:1013C0007906A0F781E080934A030E94740360933A
:1013D000360370933703809338039093390346E0C4
:1013E00050E06BE772E087E992E00E94B4000E944F
:1013F0008C0068EE73E080E090E00E94420382E897
:1014000092E00E94670C80919F03882309F458C0E2
:1014100020918F033091900340919103509192035A
:10142000609193037091940380919503909196033A
:10143000A0909703B0909803C0909903D0909A031E
:10144000E0909B03F0909C0300919D0310919E03FC
:101450000E94380C69017A018B01D82FC92F0E9494
:1014600074031B012C019601A701B8018D2F9C2F3D
:1014700051016201E12CF12C00E010E00E94410CCE
:1014800009F0F0F488E00E94ED0161E0892B09F099
:1014900060E088E00E943A020E947403DC01CB0104
:1014A00060938F0390939003A0939103B093920362
:1014B0001092930310929403109295031092960346
:1014C0000E941E01882309F49ECF0E94F8039BCF3F
:1014D0000F931F93CF93DF93009759F46115710514
:1014E00041F4F0E0E0E0CF01DF91CF911F910F9147
:1014F00008958B01EC016EE070E081E090E00E94C5
:10150000B30AFC01892B69F380E883830115110577
:1015100071F01387028781E883838091A003909103
:10152000A103892B21F4F093A103E093A00320975A
:10153000D1F2D187C0878381826083838091A203A7
:101540009091A303892B79F6F093A303E093A20370
:101550008091A4039091A503892B29F6F093A5030C
:10156000E093A403C0CF0F931F93CF93DF93869F85
:101570008001879F100D969F100D1124C8010E94B5
:10158000CF0AEC01009729F0A80170E060E00E940A
:10159000F40BCE01DF91CF911F910F9108950F931E
:1015A0001F93CF93DF938230910510F482E090E097
:1015B000E091A803F091A90330E020E0B0E0A0E0C2
:1015C000309799F42115310509F44AC0281B390BCD
:1015D00024303105D8F58A819B816115710589F127
:1015E000FB0193838283FE0111C0408151810281FE
:1015F000138148175907E0F04817590799F41097D5
:1016000061F012960C93129713961C933296CF01A9
:10161000DF91CF911F910F9108950093A80310932C
:10162000A903F4CF2115310551F04217530738F0C3
:10163000A901DB019A01BD01DF01F801C1CFEF0172
:10164000F9CF9093A9038093A803CDCFFE01E20FB9
:10165000F31F819391932250310939832883D7CF87
:101660002091A6033091A703232B41F4209102017E
:10167000309103013093A7032093A603209100012A
:10168000309101012115310541F42DB73EB740914C
:10169000040150910501241B350BE091A603F09144
:1016A000A703E217F307A0F42E1B3F0B28173907F7
:1016B00078F0AC014E5F5F4F2417350748F04E0FAE
:1016C0005F1F5093A7034093A603819391939FCFED
:1016D000F0E0E0E09CCFCF93DF930097E9F0FC01CE
:1016E000329713821282A091A803B091A903ED0151
:1016F00030E020E01097A1F420813181820F931F08
:101700002091A6033091A7032817390709F061C07B
:10171000F093A703E093A603DF91CF910895EA0128
:10172000CE17DF07E8F54A815B819E01411551051F
:10173000B1F7E901FB83EA8349915991C40FD51FA1
:10174000EC17FD0761F4808191810296840F951F4B
:10175000E90199838883828193819B838A83F0E066
:10176000E0E012968D919C9113970097B9F52D9119
:101770003C911197CD010296820F931F2091A603F1
:101780003091A7032817390739F6309751F5109291
:10179000A9031092A803B093A703A093A603BCCFFC
:1017A000D383C28340815181840F951FC817D90705
:1017B00061F44E5F5F4F88819981480F591F5183B3
:1017C00040838A819B81938382832115310509F0AF
:1017D000B0CFF093A903E093A8039ECFFD01DC01F5
:1017E000C0CF13821282D7CFDC0101C06D9341506C
:1017F0005040E0F708952F923F924F925F926F9280
:101800007F928F929F92AF92BF92CF92DF92EF9290
:10181000FF920F931F93CF93DF93CDB7DEB7CA1B11
:10182000DB0B0FB6F894DEBF0FBECDBF09942A883C
:10183000398848885F846E847D848C849B84AA84E4
:10184000B984C884DF80EE80FD800C811B81AA8171
:10185000B981CE0FD11D0FB6F894DEBF0FBECDBF3C
:10186000ED010895EE0FFF1F0590F491E02D09940E
:101870002A0D3B1D4C1D5D1D6E1D7F1D801F911F80
:1018800008952A153B054C055D056E057F0580070B
:1018900091070895B0E0A0E0E0E5FCE00C940B0CAB
:1018A000AE014B5F5F4FFA0161917191AF01809181
:1018B000A2039091A3030E949B0CE2E00C94270CDE
:1018C0006091A2037091A3030E948B0E08950F9361
:1018D0001F93CF93DF93E091A203F091A3032381A1
:1018E000EC0110E000E021FD08C00FEF1FEF14C075
:1018F0000995892B11F00FEF1FEF89916091A203D9
:101900007091A303DB011896ED91FC918111F0CF4A
:101910008AE00995892B49F7C801DF91CF911F9182
:101920000F910895AB01BC018091A2039091A30394
:101930000E949B0C0895ABE0B0E0E1EAFCE00C945F
:10194000FB0B7C013B018A01FC011782168283811B
:1019500081FFC8C1CE0101965C01F7019381F301BB
:1019600093FD859193FF81913F01882309F453C131
:10197000853239F493FD859193FF81913F01853242
:1019800029F4B70190E00E948B0EE7CF912C212C17
:10199000312CFFE1F31538F08B3211F190F48032E5
:1019A00009F1833229F137FC3CC020ED280F2A30A1
:1019B00050F536FE20C08AE0989E200D1124922E0C
:1019C00006C08D3291F0803371F7689430F8F301DE
:1019D00093FD859193FF81913F018111DACF21C061
:1019E000689431F8689432F8F2CF689433F8EFCF06
:1019F000689434F8ECCFEAE02E9E200D1124222EBC
:101A0000689435F8E4CF8E3229F436FC04C168942A
:101A100036F8DDCF8C3619F4689437F8D8CF88368D
:101A2000B1F2982F9F7D95549330E0F08336A1F169
:101A30008337C1F1833509F063C02801F2E04F0E0E
:101A4000511CF801C080D180692D70E036FC02C0C5
:101A50006FEF7FEFC6010E94750E4C01689437F856
:101A600082010AC00C5F1F4FFFE3F983882483942F
:101A7000912C6501E89437F833FE2DC0522C811467
:101A8000910471F5552009F468CFB70180E290E028
:101A90000E948B0E5A94F6CFF801808189830E5FE5
:101AA0001F4FE4CF2801F2E04F0E511CF801C08017
:101AB000D180692D70E036FC02C06FEF7FEFC60168
:101AC0000E94800E4C018201D5CFB70180E290E0E8
:101AD0000E948B0E2A942814190409F0B0F7CECF77
:101AE000F60137FC859137FE81916F01B70190E0D7
:101AF0000E948B0E51105A94F1E08F1A9108BFCFBB
:101B0000843619F0893609F077C0F80137FE6BC0CA
:101B100060817181828193810C5F1F4FF32DFF766D
:101B20003F2E97FF09C090958095709561957F4FE6
:101B30008F4F9F4F689437F82AE030E0A5010E944C
:101B4000BB0EC82ECA188C2C432C36FE0CC0E89451
:101B500040F8C91440F434FE05C032FC03C0F32D34
:101B6000FE7E4F2E892C44FE95C0FE01EC0DF11D2A
:101B70008081803309F087C0242D297E422E842D58
:101B80008870582E43FC95C040FE8FC09C2C821458
:101B900018F42C0C922C981844FE91C0B70180E3E5
:101BA00090E00E948B0E42FE09C088E790E041FE63
:101BB00002C088E590E0B7010E948B0EC91408F4BA
:101BC0008AC0CA94D12C9FEFC91AD90ACA0CDB1C4F
:101BD000F60182916F01B70190E00E948B0EAC1468
:101BE000BD04B1F74FCF60817181072E000C880BC7
:101BF000990B0E5F1F4F92CFD32CE894D4F82AE0B4
:101C000030E0853739F1232D297FD22E8F3601F12F
:101C100048F48835A9F0F701868197812B96E2E197
:101C20000C94170C803749F08837A9F7D4FE02C00E
:101C30006894D2F820E130E00DC06894D4F8F6CF73
:101C400034FE03C0822F8660D82E20E132E002C02D
:101C500028E030E0F801D7FE0FC0608171818281F9
:101C600093810C5F1F4FA5010E94BB0EC82ECA189E
:101C70003D2CE89437F867CF6081718190E080E077
:101C80000E5F1F4FF0CF42FC02C0839478CF839445
:101C9000839475CF842D867809F471CFF6CFB70180
:101CA00080E290E00E948B0E83948214C0F3512C4A
:101CB00073CF522C5818821408F46ECFF8CF842DAD
:101CC000867809F47BCF8BE241FE80E247FC8DE20F
:101CD000B70190E071CFB70180E390E00E948B0ED6
:101CE0009A946CCF8FEF9FEF99CFFC0105906150D4
:101CF00070400110D8F7809590958E0F9F1F089522
:101D0000FC016150704001900110D8F780959095CA
:101D10008E0F9F1F08950F931F93CF93DF93182F5C
:101D2000092FEB018B8181FD09C01FEF0FEF812F80
:101D3000902FDF91CF911F910F91089582FF14C0D2
:101D40002E813F818C819D81281739073CF4E881E1
:101D5000F981CF0101969983888310838E819F81B9
:101D600001969F838E83E3CFE885F985812F0995BE
:101D7000892BA1F3DACFFA01AA27283051F12031BB
:101D800081F1E8946F936E7F6E5F7F4F8F4F9F4F0F
:101D9000AF4FB1E03ED0B4E03CD0670F781F891F51
:101DA0009A1FA11D680F791F8A1F911DA11D6A0F1F
:101DB000711D811D911DA11D20D009F468943F91D2
:101DC0002AE0269F11243019305D3193DEF6CF01D1
:101DD0000895462F4770405D4193B3E00FD0C9F797
:101DE000F6CF462F4F70405D4A3318F0495D31FD04
:101DF0004052419302D0A9F7EACFB4E0A695979557
:101E0000879577956795BA95C9F70097610571052C
:101E100008959B01AC010A2E069457954795379576
:101E20002795BA95C9F7620F731F841F951FA01DD0
:061E30000895F894FFCFB5
:101E36000000AA0380000E000F001000110012001F
:101E460013000B000C00000000004A01B400E10082
:101E5600A4011201F000040152656164206D6178ED
:101E660020726574727920657863656464656400C0
:101E76005B4442475D20004462672025640A0053A4
:101E86006574204461746120746F203078353500A4
:101E9600536574204461746120746F203078414129
:101EA60000526563762062797465205B307838303D
:101EB60030305D202D3E20005265637620627974B5
:101EC60065205B3078383030315D202D3E20004E65
:101ED6006F7420696D706C656D656E746564004322
:101EE60068756E6B2025642F2564205B25645D0A6A
:101EF60000536574205257202D3E204C4F570053F7
:101F06006574204164647265737320746F20253094
:101F1600347800536574204461746120746F202501
:101F260030327800556E73657420435300436C65F8
:101F36006172206461746100536574205257202DCC
:101F46003E2048696768004572726F7220402530EE
:101F56003478205B253032785D203E205B25303298
:101F6600785D005772697465204025303478203ECC
:101F76002053697A65202530327820657272636E47
:101F8600742025640A00496E76616C696420636F6B
:101F96006D6D616E642025780A00564D4450565F7B
:101FA600317C315F564D4450560A00564D445052CE
:0E1FB6005F004842504320726561647921004B
:00000001FF
